{"contracts/Twitter.sol":{"Twitter":{"abi":[{"anonymous":false,"inputs":[{"indexed":false,"internalType":"address","name":"recep","type":"address"},{"indexed":false,"internalType":"uint256","name":"tId","type":"uint256"}],"name":"addedTweet","type":"event"},{"anonymous":false,"inputs":[{"indexed":false,"internalType":"uint256","name":"tId","type":"uint256"},{"indexed":false,"internalType":"bool","name":"deleted","type":"bool"}],"name":"delTweet","type":"event"},{"inputs":[{"internalType":"string","name":"text","type":"string"},{"internalType":"bool","name":"deleted","type":"bool"}],"name":"addTweet","outputs":[],"stateMutability":"nonpayable","type":"function"},{"inputs":[{"internalType":"uint256","name":"tId","type":"uint256"},{"internalType":"bool","name":"deleted","type":"bool"}],"name":"deleteTweet","outputs":[],"stateMutability":"nonpayable","type":"function"},{"inputs":[],"name":"getTweets","outputs":[{"components":[{"internalType":"uint256","name":"id","type":"uint256"},{"internalType":"address","name":"uname","type":"address"},{"internalType":"string","name":"text","type":"string"},{"internalType":"bool","name":"deleted","type":"bool"}],"internalType":"struct Twitter.Tweet[]","name":"","type":"tuple[]"}],"stateMutability":"view","type":"function"},{"inputs":[],"name":"getUserTweets","outputs":[{"components":[{"internalType":"uint256","name":"id","type":"uint256"},{"internalType":"address","name":"uname","type":"address"},{"internalType":"string","name":"text","type":"string"},{"internalType":"bool","name":"deleted","type":"bool"}],"internalType":"struct Twitter.Tweet[]","name":"","type":"tuple[]"}],"stateMutability":"view","type":"function"}],"evm":{"bytecode":{"linkReferences":{},"object":"608060405234801561001057600080fd5b5061125b806100206000396000f3fe608060405234801561001057600080fd5b506004361061004c5760003560e01c8063731903ff14610051578063e580339f1461006f578063f0312a371461008b578063fc86741f146100a7575b600080fd5b6100596100c5565b6040516100669190610bc3565b60405180910390f35b61008960048036038101906100849190610d5a565b610411565b005b6100a560048036038101906100a09190610de2565b610597565b005b6100af610678565b6040516100bc9190610bc3565b60405180910390f35b60606000808054905067ffffffffffffffff8111156100e7576100e6610c03565b5b60405190808252806020026020018201604052801561012057816020015b61010d610959565b8152602001906001900390816101055790505b5090506000805b600080549050811015610357573373ffffffffffffffffffffffffffffffffffffffff166001600083815260200190815260200160002060009054906101000a900473ffffffffffffffffffffffffffffffffffffffff1673ffffffffffffffffffffffffffffffffffffffff161480156101d8575060001515600082815481106101b5576101b4610e22565b5b906000526020600020906004020160030160009054906101000a900460ff161515145b1561034457600081815481106101f1576101f0610e22565b5b9060005260206000209060040201604051806080016040529081600082015481526020016001820160009054906101000a900473ffffffffffffffffffffffffffffffffffffffff1673ffffffffffffffffffffffffffffffffffffffff1673ffffffffffffffffffffffffffffffffffffffff16815260200160028201805461027a90610e80565b80601f01602080910402602001604051908101604052809291908181526020018280546102a690610e80565b80156102f35780601f106102c8576101008083540402835291602001916102f3565b820191906000526020600020905b8154815290600101906020018083116102d657829003601f168201915b505050505081526020016003820160009054906101000a900460ff16151515158152505083838151811061032a57610329610e22565b5b6020026020010181905250818061034090610ee0565b9250505b808061034f90610ee0565b915050610127565b5060008167ffffffffffffffff81111561037457610373610c03565b5b6040519080825280602002602001820160405280156103ad57816020015b61039a610959565b8152602001906001900390816103925790505b50905060005b82811015610407578381815181106103ce576103cd610e22565b5b60200260200101518282815181106103e9576103e8610e22565b5b602002602001018190525080806103ff90610ee0565b9150506103b3565b5080935050505090565b600080805490509050600060405180608001604052808381526020013373ffffffffffffffffffffffffffffffffffffffff16815260200185815260200184151581525090806001815401808255809150506001900390600052602060002090600402016000909190919091506000820151816000015560208201518160010160006101000a81548173ffffffffffffffffffffffffffffffffffffffff021916908373ffffffffffffffffffffffffffffffffffffffff16021790555060408201518160020190816104e491906110d4565b5060608201518160030160006101000a81548160ff0219169083151502179055505050336001600083815260200190815260200160002060006101000a81548173ffffffffffffffffffffffffffffffffffffffff021916908373ffffffffffffffffffffffffffffffffffffffff1602179055507f855707b2df044b4a4b6442428929c41e615eb8259d307cf789a1f61eddb47e06338260405161058a9291906111c4565b60405180910390a1505050565b3373ffffffffffffffffffffffffffffffffffffffff166001600084815260200190815260200160002060009054906101000a900473ffffffffffffffffffffffffffffffffffffffff1673ffffffffffffffffffffffffffffffffffffffff160361067457806000838154811061061257610611610e22565b5b906000526020600020906004020160030160006101000a81548160ff0219169083151502179055507ffb379bdb102e50b1a6c8ae7c1873d71d2772b9643788fe71d758001d6f7774d5828260405161066b9291906111fc565b60405180910390a15b5050565b60606000808054905067ffffffffffffffff81111561069a57610699610c03565b5b6040519080825280602002602001820160405280156106d357816020015b6106c0610959565b8152602001906001900390816106b85790505b5090506000805b60008054905081101561089f5760001515600082815481106106ff576106fe610e22565b5b906000526020600020906004020160030160009054906101000a900460ff1615150361088c576000818154811061073957610738610e22565b5b9060005260206000209060040201604051806080016040529081600082015481526020016001820160009054906101000a900473ffffffffffffffffffffffffffffffffffffffff1673ffffffffffffffffffffffffffffffffffffffff1673ffffffffffffffffffffffffffffffffffffffff1681526020016002820180546107c290610e80565b80601f01602080910402602001604051908101604052809291908181526020018280546107ee90610e80565b801561083b5780601f106108105761010080835404028352916020019161083b565b820191906000526020600020905b81548152906001019060200180831161081e57829003601f168201915b505050505081526020016003820160009054906101000a900460ff16151515158152505083838151811061087257610871610e22565b5b6020026020010181905250818061088890610ee0565b9250505b808061089790610ee0565b9150506106da565b5060008167ffffffffffffffff8111156108bc576108bb610c03565b5b6040519080825280602002602001820160405280156108f557816020015b6108e2610959565b8152602001906001900390816108da5790505b50905060005b8281101561094f5783818151811061091657610915610e22565b5b602002602001015182828151811061093157610930610e22565b5b6020026020010181905250808061094790610ee0565b9150506108fb565b5080935050505090565b604051806080016040528060008152602001600073ffffffffffffffffffffffffffffffffffffffff168152602001606081526020016000151581525090565b600081519050919050565b600082825260208201905092915050565b6000819050602082019050919050565b6000819050919050565b6109d8816109c5565b82525050565b600073ffffffffffffffffffffffffffffffffffffffff82169050919050565b6000610a09826109de565b9050919050565b610a19816109fe565b82525050565b600081519050919050565b600082825260208201905092915050565b60005b83811015610a59578082015181840152602081019050610a3e565b60008484015250505050565b6000601f19601f8301169050919050565b6000610a8182610a1f565b610a8b8185610a2a565b9350610a9b818560208601610a3b565b610aa481610a65565b840191505092915050565b60008115159050919050565b610ac481610aaf565b82525050565b6000608083016000830151610ae260008601826109cf565b506020830151610af56020860182610a10565b5060408301518482036040860152610b0d8282610a76565b9150506060830151610b226060860182610abb565b508091505092915050565b6000610b398383610aca565b905092915050565b6000602082019050919050565b6000610b5982610999565b610b6381856109a4565b935083602082028501610b75856109b5565b8060005b85811015610bb15784840389528151610b928582610b2d565b9450610b9d83610b41565b925060208a01995050600181019050610b79565b50829750879550505050505092915050565b60006020820190508181036000830152610bdd8184610b4e565b905092915050565b6000604051905090565b600080fd5b600080fd5b600080fd5b600080fd5b7f4e487b7100000000000000000000000000000000000000000000000000000000600052604160045260246000fd5b610c3b82610a65565b810181811067ffffffffffffffff82111715610c5a57610c59610c03565b5b80604052505050565b6000610c6d610be5565b9050610c798282610c32565b919050565b600067ffffffffffffffff821115610c9957610c98610c03565b5b610ca282610a65565b9050602081019050919050565b82818337600083830152505050565b6000610cd1610ccc84610c7e565b610c63565b905082815260208101848484011115610ced57610cec610bfe565b5b610cf8848285610caf565b509392505050565b600082601f830112610d1557610d14610bf9565b5b8135610d25848260208601610cbe565b91505092915050565b610d3781610aaf565b8114610d4257600080fd5b50565b600081359050610d5481610d2e565b92915050565b60008060408385031215610d7157610d70610bef565b5b600083013567ffffffffffffffff811115610d8f57610d8e610bf4565b5b610d9b85828601610d00565b9250506020610dac85828601610d45565b9150509250929050565b610dbf816109c5565b8114610dca57600080fd5b50565b600081359050610ddc81610db6565b92915050565b60008060408385031215610df957610df8610bef565b5b6000610e0785828601610dcd565b9250506020610e1885828601610d45565b9150509250929050565b7f4e487b7100000000000000000000000000000000000000000000000000000000600052603260045260246000fd5b7f4e487b7100000000000000000000000000000000000000000000000000000000600052602260045260246000fd5b60006002820490506001821680610e9857607f821691505b602082108103610eab57610eaa610e51565b5b50919050565b7f4e487b7100000000000000000000000000000000000000000000000000000000600052601160045260246000fd5b6000610eeb826109c5565b91507fffffffffffffffffffffffffffffffffffffffffffffffffffffffffffffffff8203610f1d57610f1c610eb1565b5b600182019050919050565b60008190508160005260206000209050919050565b60006020601f8301049050919050565b600082821b905092915050565b600060088302610f8a7fffffffffffffffffffffffffffffffffffffffffffffffffffffffffffffffff82610f4d565b610f948683610f4d565b95508019841693508086168417925050509392505050565b6000819050919050565b6000610fd1610fcc610fc7846109c5565b610fac565b6109c5565b9050919050565b6000819050919050565b610feb83610fb6565b610fff610ff782610fd8565b848454610f5a565b825550505050565b600090565b611014611007565b61101f818484610fe2565b505050565b5b818110156110435761103860008261100c565b600181019050611025565b5050565b601f8211156110885761105981610f28565b61106284610f3d565b81016020851015611071578190505b61108561107d85610f3d565b830182611024565b50505b505050565b600082821c905092915050565b60006110ab6000198460080261108d565b1980831691505092915050565b60006110c4838361109a565b9150826002028217905092915050565b6110dd82610a1f565b67ffffffffffffffff8111156110f6576110f5610c03565b5b6111008254610e80565b61110b828285611047565b600060209050601f83116001811461113e576000841561112c578287015190505b61113685826110b8565b86555061119e565b601f19841661114c86610f28565b60005b828110156111745784890151825560018201915060208501945060208101905061114f565b86831015611191578489015161118d601f89168261109a565b8355505b6001600288020188555050505b505050505050565b6111af816109fe565b82525050565b6111be816109c5565b82525050565b60006040820190506111d960008301856111a6565b6111e660208301846111b5565b9392505050565b6111f681610aaf565b82525050565b600060408201905061121160008301856111b5565b61121e60208301846111ed565b939250505056fea264697066735822122030c62ec962c8ea81aad7c9a3648ac2ef1df22c7b34163c53472af20c61e42e1b64736f6c63430008110033","opcodes":"PUSH1 0x80 PUSH1 0x40 MSTORE CALLVALUE DUP1 ISZERO PUSH2 0x10 JUMPI PUSH1 0x0 DUP1 REVERT JUMPDEST POP PUSH2 0x125B DUP1 PUSH2 0x20 PUSH1 0x0 CODECOPY PUSH1 0x0 RETURN INVALID PUSH1 0x80 PUSH1 0x40 MSTORE CALLVALUE DUP1 ISZERO PUSH2 0x10 JUMPI PUSH1 0x0 DUP1 REVERT JUMPDEST POP PUSH1 0x4 CALLDATASIZE LT PUSH2 0x4C JUMPI PUSH1 0x0 CALLDATALOAD PUSH1 0xE0 SHR DUP1 PUSH4 0x731903FF EQ PUSH2 0x51 JUMPI DUP1 PUSH4 0xE580339F EQ PUSH2 0x6F JUMPI DUP1 PUSH4 0xF0312A37 EQ PUSH2 0x8B JUMPI DUP1 PUSH4 0xFC86741F EQ PUSH2 0xA7 JUMPI JUMPDEST PUSH1 0x0 DUP1 REVERT JUMPDEST PUSH2 0x59 PUSH2 0xC5 JUMP JUMPDEST PUSH1 0x40 MLOAD PUSH2 0x66 SWAP2 SWAP1 PUSH2 0xBC3 JUMP JUMPDEST PUSH1 0x40 MLOAD DUP1 SWAP2 SUB SWAP1 RETURN JUMPDEST PUSH2 0x89 PUSH1 0x4 DUP1 CALLDATASIZE SUB DUP2 ADD SWAP1 PUSH2 0x84 SWAP2 SWAP1 PUSH2 0xD5A JUMP JUMPDEST PUSH2 0x411 JUMP JUMPDEST STOP JUMPDEST PUSH2 0xA5 PUSH1 0x4 DUP1 CALLDATASIZE SUB DUP2 ADD SWAP1 PUSH2 0xA0 SWAP2 SWAP1 PUSH2 0xDE2 JUMP JUMPDEST PUSH2 0x597 JUMP JUMPDEST STOP JUMPDEST PUSH2 0xAF PUSH2 0x678 JUMP JUMPDEST PUSH1 0x40 MLOAD PUSH2 0xBC SWAP2 SWAP1 PUSH2 0xBC3 JUMP JUMPDEST PUSH1 0x40 MLOAD DUP1 SWAP2 SUB SWAP1 RETURN JUMPDEST PUSH1 0x60 PUSH1 0x0 DUP1 DUP1 SLOAD SWAP1 POP PUSH8 0xFFFFFFFFFFFFFFFF DUP2 GT ISZERO PUSH2 0xE7 JUMPI PUSH2 0xE6 PUSH2 0xC03 JUMP JUMPDEST JUMPDEST PUSH1 0x40 MLOAD SWAP1 DUP1 DUP3 MSTORE DUP1 PUSH1 0x20 MUL PUSH1 0x20 ADD DUP3 ADD PUSH1 0x40 MSTORE DUP1 ISZERO PUSH2 0x120 JUMPI DUP2 PUSH1 0x20 ADD JUMPDEST PUSH2 0x10D PUSH2 0x959 JUMP JUMPDEST DUP2 MSTORE PUSH1 0x20 ADD SWAP1 PUSH1 0x1 SWAP1 SUB SWAP1 DUP2 PUSH2 0x105 JUMPI SWAP1 POP JUMPDEST POP SWAP1 POP PUSH1 0x0 DUP1 JUMPDEST PUSH1 0x0 DUP1 SLOAD SWAP1 POP DUP2 LT ISZERO PUSH2 0x357 JUMPI CALLER PUSH20 0xFFFFFFFFFFFFFFFFFFFFFFFFFFFFFFFFFFFFFFFF AND PUSH1 0x1 PUSH1 0x0 DUP4 DUP2 MSTORE PUSH1 0x20 ADD SWAP1 DUP2 MSTORE PUSH1 0x20 ADD PUSH1 0x0 KECCAK256 PUSH1 0x0 SWAP1 SLOAD SWAP1 PUSH2 0x100 EXP SWAP1 DIV PUSH20 0xFFFFFFFFFFFFFFFFFFFFFFFFFFFFFFFFFFFFFFFF AND PUSH20 0xFFFFFFFFFFFFFFFFFFFFFFFFFFFFFFFFFFFFFFFF AND EQ DUP1 ISZERO PUSH2 0x1D8 JUMPI POP PUSH1 0x0 ISZERO ISZERO PUSH1 0x0 DUP3 DUP2 SLOAD DUP2 LT PUSH2 0x1B5 JUMPI PUSH2 0x1B4 PUSH2 0xE22 JUMP JUMPDEST JUMPDEST SWAP1 PUSH1 0x0 MSTORE PUSH1 0x20 PUSH1 0x0 KECCAK256 SWAP1 PUSH1 0x4 MUL ADD PUSH1 0x3 ADD PUSH1 0x0 SWAP1 SLOAD SWAP1 PUSH2 0x100 EXP SWAP1 DIV PUSH1 0xFF AND ISZERO ISZERO EQ JUMPDEST ISZERO PUSH2 0x344 JUMPI PUSH1 0x0 DUP2 DUP2 SLOAD DUP2 LT PUSH2 0x1F1 JUMPI PUSH2 0x1F0 PUSH2 0xE22 JUMP JUMPDEST JUMPDEST SWAP1 PUSH1 0x0 MSTORE PUSH1 0x20 PUSH1 0x0 KECCAK256 SWAP1 PUSH1 0x4 MUL ADD PUSH1 0x40 MLOAD DUP1 PUSH1 0x80 ADD PUSH1 0x40 MSTORE SWAP1 DUP2 PUSH1 0x0 DUP3 ADD SLOAD DUP2 MSTORE PUSH1 0x20 ADD PUSH1 0x1 DUP3 ADD PUSH1 0x0 SWAP1 SLOAD SWAP1 PUSH2 0x100 EXP SWAP1 DIV PUSH20 0xFFFFFFFFFFFFFFFFFFFFFFFFFFFFFFFFFFFFFFFF AND PUSH20 0xFFFFFFFFFFFFFFFFFFFFFFFFFFFFFFFFFFFFFFFF AND PUSH20 0xFFFFFFFFFFFFFFFFFFFFFFFFFFFFFFFFFFFFFFFF AND DUP2 MSTORE PUSH1 0x20 ADD PUSH1 0x2 DUP3 ADD DUP1 SLOAD PUSH2 0x27A SWAP1 PUSH2 0xE80 JUMP JUMPDEST DUP1 PUSH1 0x1F ADD PUSH1 0x20 DUP1 SWAP2 DIV MUL PUSH1 0x20 ADD PUSH1 0x40 MLOAD SWAP1 DUP2 ADD PUSH1 0x40 MSTORE DUP1 SWAP3 SWAP2 SWAP1 DUP2 DUP2 MSTORE PUSH1 0x20 ADD DUP3 DUP1 SLOAD PUSH2 0x2A6 SWAP1 PUSH2 0xE80 JUMP JUMPDEST DUP1 ISZERO PUSH2 0x2F3 JUMPI DUP1 PUSH1 0x1F LT PUSH2 0x2C8 JUMPI PUSH2 0x100 DUP1 DUP4 SLOAD DIV MUL DUP4 MSTORE SWAP2 PUSH1 0x20 ADD SWAP2 PUSH2 0x2F3 JUMP JUMPDEST DUP3 ADD SWAP2 SWAP1 PUSH1 0x0 MSTORE PUSH1 0x20 PUSH1 0x0 KECCAK256 SWAP1 JUMPDEST DUP2 SLOAD DUP2 MSTORE SWAP1 PUSH1 0x1 ADD SWAP1 PUSH1 0x20 ADD DUP1 DUP4 GT PUSH2 0x2D6 JUMPI DUP3 SWAP1 SUB PUSH1 0x1F AND DUP3 ADD SWAP2 JUMPDEST POP POP POP POP POP DUP2 MSTORE PUSH1 0x20 ADD PUSH1 0x3 DUP3 ADD PUSH1 0x0 SWAP1 SLOAD SWAP1 PUSH2 0x100 EXP SWAP1 DIV PUSH1 0xFF AND ISZERO ISZERO ISZERO ISZERO DUP2 MSTORE POP POP DUP4 DUP4 DUP2 MLOAD DUP2 LT PUSH2 0x32A JUMPI PUSH2 0x329 PUSH2 0xE22 JUMP JUMPDEST JUMPDEST PUSH1 0x20 MUL PUSH1 0x20 ADD ADD DUP2 SWAP1 MSTORE POP DUP2 DUP1 PUSH2 0x340 SWAP1 PUSH2 0xEE0 JUMP JUMPDEST SWAP3 POP POP JUMPDEST DUP1 DUP1 PUSH2 0x34F SWAP1 PUSH2 0xEE0 JUMP JUMPDEST SWAP2 POP POP PUSH2 0x127 JUMP JUMPDEST POP PUSH1 0x0 DUP2 PUSH8 0xFFFFFFFFFFFFFFFF DUP2 GT ISZERO PUSH2 0x374 JUMPI PUSH2 0x373 PUSH2 0xC03 JUMP JUMPDEST JUMPDEST PUSH1 0x40 MLOAD SWAP1 DUP1 DUP3 MSTORE DUP1 PUSH1 0x20 MUL PUSH1 0x20 ADD DUP3 ADD PUSH1 0x40 MSTORE DUP1 ISZERO PUSH2 0x3AD JUMPI DUP2 PUSH1 0x20 ADD JUMPDEST PUSH2 0x39A PUSH2 0x959 JUMP JUMPDEST DUP2 MSTORE PUSH1 0x20 ADD SWAP1 PUSH1 0x1 SWAP1 SUB SWAP1 DUP2 PUSH2 0x392 JUMPI SWAP1 POP JUMPDEST POP SWAP1 POP PUSH1 0x0 JUMPDEST DUP3 DUP2 LT ISZERO PUSH2 0x407 JUMPI DUP4 DUP2 DUP2 MLOAD DUP2 LT PUSH2 0x3CE JUMPI PUSH2 0x3CD PUSH2 0xE22 JUMP JUMPDEST JUMPDEST PUSH1 0x20 MUL PUSH1 0x20 ADD ADD MLOAD DUP3 DUP3 DUP2 MLOAD DUP2 LT PUSH2 0x3E9 JUMPI PUSH2 0x3E8 PUSH2 0xE22 JUMP JUMPDEST JUMPDEST PUSH1 0x20 MUL PUSH1 0x20 ADD ADD DUP2 SWAP1 MSTORE POP DUP1 DUP1 PUSH2 0x3FF SWAP1 PUSH2 0xEE0 JUMP JUMPDEST SWAP2 POP POP PUSH2 0x3B3 JUMP JUMPDEST POP DUP1 SWAP4 POP POP POP POP SWAP1 JUMP JUMPDEST PUSH1 0x0 DUP1 DUP1 SLOAD SWAP1 POP SWAP1 POP PUSH1 0x0 PUSH1 0x40 MLOAD DUP1 PUSH1 0x80 ADD PUSH1 0x40 MSTORE DUP1 DUP4 DUP2 MSTORE PUSH1 0x20 ADD CALLER PUSH20 0xFFFFFFFFFFFFFFFFFFFFFFFFFFFFFFFFFFFFFFFF AND DUP2 MSTORE PUSH1 0x20 ADD DUP6 DUP2 MSTORE PUSH1 0x20 ADD DUP5 ISZERO ISZERO DUP2 MSTORE POP SWAP1 DUP1 PUSH1 0x1 DUP2 SLOAD ADD DUP1 DUP3 SSTORE DUP1 SWAP2 POP POP PUSH1 0x1 SWAP1 SUB SWAP1 PUSH1 0x0 MSTORE PUSH1 0x20 PUSH1 0x0 KECCAK256 SWAP1 PUSH1 0x4 MUL ADD PUSH1 0x0 SWAP1 SWAP2 SWAP1 SWAP2 SWAP1 SWAP2 POP PUSH1 0x0 DUP3 ADD MLOAD DUP2 PUSH1 0x0 ADD SSTORE PUSH1 0x20 DUP3 ADD MLOAD DUP2 PUSH1 0x1 ADD PUSH1 0x0 PUSH2 0x100 EXP DUP2 SLOAD DUP2 PUSH20 0xFFFFFFFFFFFFFFFFFFFFFFFFFFFFFFFFFFFFFFFF MUL NOT AND SWAP1 DUP4 PUSH20 0xFFFFFFFFFFFFFFFFFFFFFFFFFFFFFFFFFFFFFFFF AND MUL OR SWAP1 SSTORE POP PUSH1 0x40 DUP3 ADD MLOAD DUP2 PUSH1 0x2 ADD SWAP1 DUP2 PUSH2 0x4E4 SWAP2 SWAP1 PUSH2 0x10D4 JUMP JUMPDEST POP PUSH1 0x60 DUP3 ADD MLOAD DUP2 PUSH1 0x3 ADD PUSH1 0x0 PUSH2 0x100 EXP DUP2 SLOAD DUP2 PUSH1 0xFF MUL NOT AND SWAP1 DUP4 ISZERO ISZERO MUL OR SWAP1 SSTORE POP POP POP CALLER PUSH1 0x1 PUSH1 0x0 DUP4 DUP2 MSTORE PUSH1 0x20 ADD SWAP1 DUP2 MSTORE PUSH1 0x20 ADD PUSH1 0x0 KECCAK256 PUSH1 0x0 PUSH2 0x100 EXP DUP2 SLOAD DUP2 PUSH20 0xFFFFFFFFFFFFFFFFFFFFFFFFFFFFFFFFFFFFFFFF MUL NOT AND SWAP1 DUP4 PUSH20 0xFFFFFFFFFFFFFFFFFFFFFFFFFFFFFFFFFFFFFFFF AND MUL OR SWAP1 SSTORE POP PUSH32 0x855707B2DF044B4A4B6442428929C41E615EB8259D307CF789A1F61EDDB47E06 CALLER DUP3 PUSH1 0x40 MLOAD PUSH2 0x58A SWAP3 SWAP2 SWAP1 PUSH2 0x11C4 JUMP JUMPDEST PUSH1 0x40 MLOAD DUP1 SWAP2 SUB SWAP1 LOG1 POP POP POP JUMP JUMPDEST CALLER PUSH20 0xFFFFFFFFFFFFFFFFFFFFFFFFFFFFFFFFFFFFFFFF AND PUSH1 0x1 PUSH1 0x0 DUP5 DUP2 MSTORE PUSH1 0x20 ADD SWAP1 DUP2 MSTORE PUSH1 0x20 ADD PUSH1 0x0 KECCAK256 PUSH1 0x0 SWAP1 SLOAD SWAP1 PUSH2 0x100 EXP SWAP1 DIV PUSH20 0xFFFFFFFFFFFFFFFFFFFFFFFFFFFFFFFFFFFFFFFF AND PUSH20 0xFFFFFFFFFFFFFFFFFFFFFFFFFFFFFFFFFFFFFFFF AND SUB PUSH2 0x674 JUMPI DUP1 PUSH1 0x0 DUP4 DUP2 SLOAD DUP2 LT PUSH2 0x612 JUMPI PUSH2 0x611 PUSH2 0xE22 JUMP JUMPDEST JUMPDEST SWAP1 PUSH1 0x0 MSTORE PUSH1 0x20 PUSH1 0x0 KECCAK256 SWAP1 PUSH1 0x4 MUL ADD PUSH1 0x3 ADD PUSH1 0x0 PUSH2 0x100 EXP DUP2 SLOAD DUP2 PUSH1 0xFF MUL NOT AND SWAP1 DUP4 ISZERO ISZERO MUL OR SWAP1 SSTORE POP PUSH32 0xFB379BDB102E50B1A6C8AE7C1873D71D2772B9643788FE71D758001D6F7774D5 DUP3 DUP3 PUSH1 0x40 MLOAD PUSH2 0x66B SWAP3 SWAP2 SWAP1 PUSH2 0x11FC JUMP JUMPDEST PUSH1 0x40 MLOAD DUP1 SWAP2 SUB SWAP1 LOG1 JUMPDEST POP POP JUMP JUMPDEST PUSH1 0x60 PUSH1 0x0 DUP1 DUP1 SLOAD SWAP1 POP PUSH8 0xFFFFFFFFFFFFFFFF DUP2 GT ISZERO PUSH2 0x69A JUMPI PUSH2 0x699 PUSH2 0xC03 JUMP JUMPDEST JUMPDEST PUSH1 0x40 MLOAD SWAP1 DUP1 DUP3 MSTORE DUP1 PUSH1 0x20 MUL PUSH1 0x20 ADD DUP3 ADD PUSH1 0x40 MSTORE DUP1 ISZERO PUSH2 0x6D3 JUMPI DUP2 PUSH1 0x20 ADD JUMPDEST PUSH2 0x6C0 PUSH2 0x959 JUMP JUMPDEST DUP2 MSTORE PUSH1 0x20 ADD SWAP1 PUSH1 0x1 SWAP1 SUB SWAP1 DUP2 PUSH2 0x6B8 JUMPI SWAP1 POP JUMPDEST POP SWAP1 POP PUSH1 0x0 DUP1 JUMPDEST PUSH1 0x0 DUP1 SLOAD SWAP1 POP DUP2 LT ISZERO PUSH2 0x89F JUMPI PUSH1 0x0 ISZERO ISZERO PUSH1 0x0 DUP3 DUP2 SLOAD DUP2 LT PUSH2 0x6FF JUMPI PUSH2 0x6FE PUSH2 0xE22 JUMP JUMPDEST JUMPDEST SWAP1 PUSH1 0x0 MSTORE PUSH1 0x20 PUSH1 0x0 KECCAK256 SWAP1 PUSH1 0x4 MUL ADD PUSH1 0x3 ADD PUSH1 0x0 SWAP1 SLOAD SWAP1 PUSH2 0x100 EXP SWAP1 DIV PUSH1 0xFF AND ISZERO ISZERO SUB PUSH2 0x88C JUMPI PUSH1 0x0 DUP2 DUP2 SLOAD DUP2 LT PUSH2 0x739 JUMPI PUSH2 0x738 PUSH2 0xE22 JUMP JUMPDEST JUMPDEST SWAP1 PUSH1 0x0 MSTORE PUSH1 0x20 PUSH1 0x0 KECCAK256 SWAP1 PUSH1 0x4 MUL ADD PUSH1 0x40 MLOAD DUP1 PUSH1 0x80 ADD PUSH1 0x40 MSTORE SWAP1 DUP2 PUSH1 0x0 DUP3 ADD SLOAD DUP2 MSTORE PUSH1 0x20 ADD PUSH1 0x1 DUP3 ADD PUSH1 0x0 SWAP1 SLOAD SWAP1 PUSH2 0x100 EXP SWAP1 DIV PUSH20 0xFFFFFFFFFFFFFFFFFFFFFFFFFFFFFFFFFFFFFFFF AND PUSH20 0xFFFFFFFFFFFFFFFFFFFFFFFFFFFFFFFFFFFFFFFF AND PUSH20 0xFFFFFFFFFFFFFFFFFFFFFFFFFFFFFFFFFFFFFFFF AND DUP2 MSTORE PUSH1 0x20 ADD PUSH1 0x2 DUP3 ADD DUP1 SLOAD PUSH2 0x7C2 SWAP1 PUSH2 0xE80 JUMP JUMPDEST DUP1 PUSH1 0x1F ADD PUSH1 0x20 DUP1 SWAP2 DIV MUL PUSH1 0x20 ADD PUSH1 0x40 MLOAD SWAP1 DUP2 ADD PUSH1 0x40 MSTORE DUP1 SWAP3 SWAP2 SWAP1 DUP2 DUP2 MSTORE PUSH1 0x20 ADD DUP3 DUP1 SLOAD PUSH2 0x7EE SWAP1 PUSH2 0xE80 JUMP JUMPDEST DUP1 ISZERO PUSH2 0x83B JUMPI DUP1 PUSH1 0x1F LT PUSH2 0x810 JUMPI PUSH2 0x100 DUP1 DUP4 SLOAD DIV MUL DUP4 MSTORE SWAP2 PUSH1 0x20 ADD SWAP2 PUSH2 0x83B JUMP JUMPDEST DUP3 ADD SWAP2 SWAP1 PUSH1 0x0 MSTORE PUSH1 0x20 PUSH1 0x0 KECCAK256 SWAP1 JUMPDEST DUP2 SLOAD DUP2 MSTORE SWAP1 PUSH1 0x1 ADD SWAP1 PUSH1 0x20 ADD DUP1 DUP4 GT PUSH2 0x81E JUMPI DUP3 SWAP1 SUB PUSH1 0x1F AND DUP3 ADD SWAP2 JUMPDEST POP POP POP POP POP DUP2 MSTORE PUSH1 0x20 ADD PUSH1 0x3 DUP3 ADD PUSH1 0x0 SWAP1 SLOAD SWAP1 PUSH2 0x100 EXP SWAP1 DIV PUSH1 0xFF AND ISZERO ISZERO ISZERO ISZERO DUP2 MSTORE POP POP DUP4 DUP4 DUP2 MLOAD DUP2 LT PUSH2 0x872 JUMPI PUSH2 0x871 PUSH2 0xE22 JUMP JUMPDEST JUMPDEST PUSH1 0x20 MUL PUSH1 0x20 ADD ADD DUP2 SWAP1 MSTORE POP DUP2 DUP1 PUSH2 0x888 SWAP1 PUSH2 0xEE0 JUMP JUMPDEST SWAP3 POP POP JUMPDEST DUP1 DUP1 PUSH2 0x897 SWAP1 PUSH2 0xEE0 JUMP JUMPDEST SWAP2 POP POP PUSH2 0x6DA JUMP JUMPDEST POP PUSH1 0x0 DUP2 PUSH8 0xFFFFFFFFFFFFFFFF DUP2 GT ISZERO PUSH2 0x8BC JUMPI PUSH2 0x8BB PUSH2 0xC03 JUMP JUMPDEST JUMPDEST PUSH1 0x40 MLOAD SWAP1 DUP1 DUP3 MSTORE DUP1 PUSH1 0x20 MUL PUSH1 0x20 ADD DUP3 ADD PUSH1 0x40 MSTORE DUP1 ISZERO PUSH2 0x8F5 JUMPI DUP2 PUSH1 0x20 ADD JUMPDEST PUSH2 0x8E2 PUSH2 0x959 JUMP JUMPDEST DUP2 MSTORE PUSH1 0x20 ADD SWAP1 PUSH1 0x1 SWAP1 SUB SWAP1 DUP2 PUSH2 0x8DA JUMPI SWAP1 POP JUMPDEST POP SWAP1 POP PUSH1 0x0 JUMPDEST DUP3 DUP2 LT ISZERO PUSH2 0x94F JUMPI DUP4 DUP2 DUP2 MLOAD DUP2 LT PUSH2 0x916 JUMPI PUSH2 0x915 PUSH2 0xE22 JUMP JUMPDEST JUMPDEST PUSH1 0x20 MUL PUSH1 0x20 ADD ADD MLOAD DUP3 DUP3 DUP2 MLOAD DUP2 LT PUSH2 0x931 JUMPI PUSH2 0x930 PUSH2 0xE22 JUMP JUMPDEST JUMPDEST PUSH1 0x20 MUL PUSH1 0x20 ADD ADD DUP2 SWAP1 MSTORE POP DUP1 DUP1 PUSH2 0x947 SWAP1 PUSH2 0xEE0 JUMP JUMPDEST SWAP2 POP POP PUSH2 0x8FB JUMP JUMPDEST POP DUP1 SWAP4 POP POP POP POP SWAP1 JUMP JUMPDEST PUSH1 0x40 MLOAD DUP1 PUSH1 0x80 ADD PUSH1 0x40 MSTORE DUP1 PUSH1 0x0 DUP2 MSTORE PUSH1 0x20 ADD PUSH1 0x0 PUSH20 0xFFFFFFFFFFFFFFFFFFFFFFFFFFFFFFFFFFFFFFFF AND DUP2 MSTORE PUSH1 0x20 ADD PUSH1 0x60 DUP2 MSTORE PUSH1 0x20 ADD PUSH1 0x0 ISZERO ISZERO DUP2 MSTORE POP SWAP1 JUMP JUMPDEST PUSH1 0x0 DUP2 MLOAD SWAP1 POP SWAP2 SWAP1 POP JUMP JUMPDEST PUSH1 0x0 DUP3 DUP3 MSTORE PUSH1 0x20 DUP3 ADD SWAP1 POP SWAP3 SWAP2 POP POP JUMP JUMPDEST PUSH1 0x0 DUP2 SWAP1 POP PUSH1 0x20 DUP3 ADD SWAP1 POP SWAP2 SWAP1 POP JUMP JUMPDEST PUSH1 0x0 DUP2 SWAP1 POP SWAP2 SWAP1 POP JUMP JUMPDEST PUSH2 0x9D8 DUP2 PUSH2 0x9C5 JUMP JUMPDEST DUP3 MSTORE POP POP JUMP JUMPDEST PUSH1 0x0 PUSH20 0xFFFFFFFFFFFFFFFFFFFFFFFFFFFFFFFFFFFFFFFF DUP3 AND SWAP1 POP SWAP2 SWAP1 POP JUMP JUMPDEST PUSH1 0x0 PUSH2 0xA09 DUP3 PUSH2 0x9DE JUMP JUMPDEST SWAP1 POP SWAP2 SWAP1 POP JUMP JUMPDEST PUSH2 0xA19 DUP2 PUSH2 0x9FE JUMP JUMPDEST DUP3 MSTORE POP POP JUMP JUMPDEST PUSH1 0x0 DUP2 MLOAD SWAP1 POP SWAP2 SWAP1 POP JUMP JUMPDEST PUSH1 0x0 DUP3 DUP3 MSTORE PUSH1 0x20 DUP3 ADD SWAP1 POP SWAP3 SWAP2 POP POP JUMP JUMPDEST PUSH1 0x0 JUMPDEST DUP4 DUP2 LT ISZERO PUSH2 0xA59 JUMPI DUP1 DUP3 ADD MLOAD DUP2 DUP5 ADD MSTORE PUSH1 0x20 DUP2 ADD SWAP1 POP PUSH2 0xA3E JUMP JUMPDEST PUSH1 0x0 DUP5 DUP5 ADD MSTORE POP POP POP POP JUMP JUMPDEST PUSH1 0x0 PUSH1 0x1F NOT PUSH1 0x1F DUP4 ADD AND SWAP1 POP SWAP2 SWAP1 POP JUMP JUMPDEST PUSH1 0x0 PUSH2 0xA81 DUP3 PUSH2 0xA1F JUMP JUMPDEST PUSH2 0xA8B DUP2 DUP6 PUSH2 0xA2A JUMP JUMPDEST SWAP4 POP PUSH2 0xA9B DUP2 DUP6 PUSH1 0x20 DUP7 ADD PUSH2 0xA3B JUMP JUMPDEST PUSH2 0xAA4 DUP2 PUSH2 0xA65 JUMP JUMPDEST DUP5 ADD SWAP2 POP POP SWAP3 SWAP2 POP POP JUMP JUMPDEST PUSH1 0x0 DUP2 ISZERO ISZERO SWAP1 POP SWAP2 SWAP1 POP JUMP JUMPDEST PUSH2 0xAC4 DUP2 PUSH2 0xAAF JUMP JUMPDEST DUP3 MSTORE POP POP JUMP JUMPDEST PUSH1 0x0 PUSH1 0x80 DUP4 ADD PUSH1 0x0 DUP4 ADD MLOAD PUSH2 0xAE2 PUSH1 0x0 DUP7 ADD DUP3 PUSH2 0x9CF JUMP JUMPDEST POP PUSH1 0x20 DUP4 ADD MLOAD PUSH2 0xAF5 PUSH1 0x20 DUP7 ADD DUP3 PUSH2 0xA10 JUMP JUMPDEST POP PUSH1 0x40 DUP4 ADD MLOAD DUP5 DUP3 SUB PUSH1 0x40 DUP7 ADD MSTORE PUSH2 0xB0D DUP3 DUP3 PUSH2 0xA76 JUMP JUMPDEST SWAP2 POP POP PUSH1 0x60 DUP4 ADD MLOAD PUSH2 0xB22 PUSH1 0x60 DUP7 ADD DUP3 PUSH2 0xABB JUMP JUMPDEST POP DUP1 SWAP2 POP POP SWAP3 SWAP2 POP POP JUMP JUMPDEST PUSH1 0x0 PUSH2 0xB39 DUP4 DUP4 PUSH2 0xACA JUMP JUMPDEST SWAP1 POP SWAP3 SWAP2 POP POP JUMP JUMPDEST PUSH1 0x0 PUSH1 0x20 DUP3 ADD SWAP1 POP SWAP2 SWAP1 POP JUMP JUMPDEST PUSH1 0x0 PUSH2 0xB59 DUP3 PUSH2 0x999 JUMP JUMPDEST PUSH2 0xB63 DUP2 DUP6 PUSH2 0x9A4 JUMP JUMPDEST SWAP4 POP DUP4 PUSH1 0x20 DUP3 MUL DUP6 ADD PUSH2 0xB75 DUP6 PUSH2 0x9B5 JUMP JUMPDEST DUP1 PUSH1 0x0 JUMPDEST DUP6 DUP2 LT ISZERO PUSH2 0xBB1 JUMPI DUP5 DUP5 SUB DUP10 MSTORE DUP2 MLOAD PUSH2 0xB92 DUP6 DUP3 PUSH2 0xB2D JUMP JUMPDEST SWAP5 POP PUSH2 0xB9D DUP4 PUSH2 0xB41 JUMP JUMPDEST SWAP3 POP PUSH1 0x20 DUP11 ADD SWAP10 POP POP PUSH1 0x1 DUP2 ADD SWAP1 POP PUSH2 0xB79 JUMP JUMPDEST POP DUP3 SWAP8 POP DUP8 SWAP6 POP POP POP POP POP POP SWAP3 SWAP2 POP POP JUMP JUMPDEST PUSH1 0x0 PUSH1 0x20 DUP3 ADD SWAP1 POP DUP2 DUP2 SUB PUSH1 0x0 DUP4 ADD MSTORE PUSH2 0xBDD DUP2 DUP5 PUSH2 0xB4E JUMP JUMPDEST SWAP1 POP SWAP3 SWAP2 POP POP JUMP JUMPDEST PUSH1 0x0 PUSH1 0x40 MLOAD SWAP1 POP SWAP1 JUMP JUMPDEST PUSH1 0x0 DUP1 REVERT JUMPDEST PUSH1 0x0 DUP1 REVERT JUMPDEST PUSH1 0x0 DUP1 REVERT JUMPDEST PUSH1 0x0 DUP1 REVERT JUMPDEST PUSH32 0x4E487B7100000000000000000000000000000000000000000000000000000000 PUSH1 0x0 MSTORE PUSH1 0x41 PUSH1 0x4 MSTORE PUSH1 0x24 PUSH1 0x0 REVERT JUMPDEST PUSH2 0xC3B DUP3 PUSH2 0xA65 JUMP JUMPDEST DUP2 ADD DUP2 DUP2 LT PUSH8 0xFFFFFFFFFFFFFFFF DUP3 GT OR ISZERO PUSH2 0xC5A JUMPI PUSH2 0xC59 PUSH2 0xC03 JUMP JUMPDEST JUMPDEST DUP1 PUSH1 0x40 MSTORE POP POP POP JUMP JUMPDEST PUSH1 0x0 PUSH2 0xC6D PUSH2 0xBE5 JUMP JUMPDEST SWAP1 POP PUSH2 0xC79 DUP3 DUP3 PUSH2 0xC32 JUMP JUMPDEST SWAP2 SWAP1 POP JUMP JUMPDEST PUSH1 0x0 PUSH8 0xFFFFFFFFFFFFFFFF DUP3 GT ISZERO PUSH2 0xC99 JUMPI PUSH2 0xC98 PUSH2 0xC03 JUMP JUMPDEST JUMPDEST PUSH2 0xCA2 DUP3 PUSH2 0xA65 JUMP JUMPDEST SWAP1 POP PUSH1 0x20 DUP2 ADD SWAP1 POP SWAP2 SWAP1 POP JUMP JUMPDEST DUP3 DUP2 DUP4 CALLDATACOPY PUSH1 0x0 DUP4 DUP4 ADD MSTORE POP POP POP JUMP JUMPDEST PUSH1 0x0 PUSH2 0xCD1 PUSH2 0xCCC DUP5 PUSH2 0xC7E JUMP JUMPDEST PUSH2 0xC63 JUMP JUMPDEST SWAP1 POP DUP3 DUP2 MSTORE PUSH1 0x20 DUP2 ADD DUP5 DUP5 DUP5 ADD GT ISZERO PUSH2 0xCED JUMPI PUSH2 0xCEC PUSH2 0xBFE JUMP JUMPDEST JUMPDEST PUSH2 0xCF8 DUP5 DUP3 DUP6 PUSH2 0xCAF JUMP JUMPDEST POP SWAP4 SWAP3 POP POP POP JUMP JUMPDEST PUSH1 0x0 DUP3 PUSH1 0x1F DUP4 ADD SLT PUSH2 0xD15 JUMPI PUSH2 0xD14 PUSH2 0xBF9 JUMP JUMPDEST JUMPDEST DUP2 CALLDATALOAD PUSH2 0xD25 DUP5 DUP3 PUSH1 0x20 DUP7 ADD PUSH2 0xCBE JUMP JUMPDEST SWAP2 POP POP SWAP3 SWAP2 POP POP JUMP JUMPDEST PUSH2 0xD37 DUP2 PUSH2 0xAAF JUMP JUMPDEST DUP2 EQ PUSH2 0xD42 JUMPI PUSH1 0x0 DUP1 REVERT JUMPDEST POP JUMP JUMPDEST PUSH1 0x0 DUP2 CALLDATALOAD SWAP1 POP PUSH2 0xD54 DUP2 PUSH2 0xD2E JUMP JUMPDEST SWAP3 SWAP2 POP POP JUMP JUMPDEST PUSH1 0x0 DUP1 PUSH1 0x40 DUP4 DUP6 SUB SLT ISZERO PUSH2 0xD71 JUMPI PUSH2 0xD70 PUSH2 0xBEF JUMP JUMPDEST JUMPDEST PUSH1 0x0 DUP4 ADD CALLDATALOAD PUSH8 0xFFFFFFFFFFFFFFFF DUP2 GT ISZERO PUSH2 0xD8F JUMPI PUSH2 0xD8E PUSH2 0xBF4 JUMP JUMPDEST JUMPDEST PUSH2 0xD9B DUP6 DUP3 DUP7 ADD PUSH2 0xD00 JUMP JUMPDEST SWAP3 POP POP PUSH1 0x20 PUSH2 0xDAC DUP6 DUP3 DUP7 ADD PUSH2 0xD45 JUMP JUMPDEST SWAP2 POP POP SWAP3 POP SWAP3 SWAP1 POP JUMP JUMPDEST PUSH2 0xDBF DUP2 PUSH2 0x9C5 JUMP JUMPDEST DUP2 EQ PUSH2 0xDCA JUMPI PUSH1 0x0 DUP1 REVERT JUMPDEST POP JUMP JUMPDEST PUSH1 0x0 DUP2 CALLDATALOAD SWAP1 POP PUSH2 0xDDC DUP2 PUSH2 0xDB6 JUMP JUMPDEST SWAP3 SWAP2 POP POP JUMP JUMPDEST PUSH1 0x0 DUP1 PUSH1 0x40 DUP4 DUP6 SUB SLT ISZERO PUSH2 0xDF9 JUMPI PUSH2 0xDF8 PUSH2 0xBEF JUMP JUMPDEST JUMPDEST PUSH1 0x0 PUSH2 0xE07 DUP6 DUP3 DUP7 ADD PUSH2 0xDCD JUMP JUMPDEST SWAP3 POP POP PUSH1 0x20 PUSH2 0xE18 DUP6 DUP3 DUP7 ADD PUSH2 0xD45 JUMP JUMPDEST SWAP2 POP POP SWAP3 POP SWAP3 SWAP1 POP JUMP JUMPDEST PUSH32 0x4E487B7100000000000000000000000000000000000000000000000000000000 PUSH1 0x0 MSTORE PUSH1 0x32 PUSH1 0x4 MSTORE PUSH1 0x24 PUSH1 0x0 REVERT JUMPDEST PUSH32 0x4E487B7100000000000000000000000000000000000000000000000000000000 PUSH1 0x0 MSTORE PUSH1 0x22 PUSH1 0x4 MSTORE PUSH1 0x24 PUSH1 0x0 REVERT JUMPDEST PUSH1 0x0 PUSH1 0x2 DUP3 DIV SWAP1 POP PUSH1 0x1 DUP3 AND DUP1 PUSH2 0xE98 JUMPI PUSH1 0x7F DUP3 AND SWAP2 POP JUMPDEST PUSH1 0x20 DUP3 LT DUP2 SUB PUSH2 0xEAB JUMPI PUSH2 0xEAA PUSH2 0xE51 JUMP JUMPDEST JUMPDEST POP SWAP2 SWAP1 POP JUMP JUMPDEST PUSH32 0x4E487B7100000000000000000000000000000000000000000000000000000000 PUSH1 0x0 MSTORE PUSH1 0x11 PUSH1 0x4 MSTORE PUSH1 0x24 PUSH1 0x0 REVERT JUMPDEST PUSH1 0x0 PUSH2 0xEEB DUP3 PUSH2 0x9C5 JUMP JUMPDEST SWAP2 POP PUSH32 0xFFFFFFFFFFFFFFFFFFFFFFFFFFFFFFFFFFFFFFFFFFFFFFFFFFFFFFFFFFFFFFFF DUP3 SUB PUSH2 0xF1D JUMPI PUSH2 0xF1C PUSH2 0xEB1 JUMP JUMPDEST JUMPDEST PUSH1 0x1 DUP3 ADD SWAP1 POP SWAP2 SWAP1 POP JUMP JUMPDEST PUSH1 0x0 DUP2 SWAP1 POP DUP2 PUSH1 0x0 MSTORE PUSH1 0x20 PUSH1 0x0 KECCAK256 SWAP1 POP SWAP2 SWAP1 POP JUMP JUMPDEST PUSH1 0x0 PUSH1 0x20 PUSH1 0x1F DUP4 ADD DIV SWAP1 POP SWAP2 SWAP1 POP JUMP JUMPDEST PUSH1 0x0 DUP3 DUP3 SHL SWAP1 POP SWAP3 SWAP2 POP POP JUMP JUMPDEST PUSH1 0x0 PUSH1 0x8 DUP4 MUL PUSH2 0xF8A PUSH32 0xFFFFFFFFFFFFFFFFFFFFFFFFFFFFFFFFFFFFFFFFFFFFFFFFFFFFFFFFFFFFFFFF DUP3 PUSH2 0xF4D JUMP JUMPDEST PUSH2 0xF94 DUP7 DUP4 PUSH2 0xF4D JUMP JUMPDEST SWAP6 POP DUP1 NOT DUP5 AND SWAP4 POP DUP1 DUP7 AND DUP5 OR SWAP3 POP POP POP SWAP4 SWAP3 POP POP POP JUMP JUMPDEST PUSH1 0x0 DUP2 SWAP1 POP SWAP2 SWAP1 POP JUMP JUMPDEST PUSH1 0x0 PUSH2 0xFD1 PUSH2 0xFCC PUSH2 0xFC7 DUP5 PUSH2 0x9C5 JUMP JUMPDEST PUSH2 0xFAC JUMP JUMPDEST PUSH2 0x9C5 JUMP JUMPDEST SWAP1 POP SWAP2 SWAP1 POP JUMP JUMPDEST PUSH1 0x0 DUP2 SWAP1 POP SWAP2 SWAP1 POP JUMP JUMPDEST PUSH2 0xFEB DUP4 PUSH2 0xFB6 JUMP JUMPDEST PUSH2 0xFFF PUSH2 0xFF7 DUP3 PUSH2 0xFD8 JUMP JUMPDEST DUP5 DUP5 SLOAD PUSH2 0xF5A JUMP JUMPDEST DUP3 SSTORE POP POP POP POP JUMP JUMPDEST PUSH1 0x0 SWAP1 JUMP JUMPDEST PUSH2 0x1014 PUSH2 0x1007 JUMP JUMPDEST PUSH2 0x101F DUP2 DUP5 DUP5 PUSH2 0xFE2 JUMP JUMPDEST POP POP POP JUMP JUMPDEST JUMPDEST DUP2 DUP2 LT ISZERO PUSH2 0x1043 JUMPI PUSH2 0x1038 PUSH1 0x0 DUP3 PUSH2 0x100C JUMP JUMPDEST PUSH1 0x1 DUP2 ADD SWAP1 POP PUSH2 0x1025 JUMP JUMPDEST POP POP JUMP JUMPDEST PUSH1 0x1F DUP3 GT ISZERO PUSH2 0x1088 JUMPI PUSH2 0x1059 DUP2 PUSH2 0xF28 JUMP JUMPDEST PUSH2 0x1062 DUP5 PUSH2 0xF3D JUMP JUMPDEST DUP2 ADD PUSH1 0x20 DUP6 LT ISZERO PUSH2 0x1071 JUMPI DUP2 SWAP1 POP JUMPDEST PUSH2 0x1085 PUSH2 0x107D DUP6 PUSH2 0xF3D JUMP JUMPDEST DUP4 ADD DUP3 PUSH2 0x1024 JUMP JUMPDEST POP POP JUMPDEST POP POP POP JUMP JUMPDEST PUSH1 0x0 DUP3 DUP3 SHR SWAP1 POP SWAP3 SWAP2 POP POP JUMP JUMPDEST PUSH1 0x0 PUSH2 0x10AB PUSH1 0x0 NOT DUP5 PUSH1 0x8 MUL PUSH2 0x108D JUMP JUMPDEST NOT DUP1 DUP4 AND SWAP2 POP POP SWAP3 SWAP2 POP POP JUMP JUMPDEST PUSH1 0x0 PUSH2 0x10C4 DUP4 DUP4 PUSH2 0x109A JUMP JUMPDEST SWAP2 POP DUP3 PUSH1 0x2 MUL DUP3 OR SWAP1 POP SWAP3 SWAP2 POP POP JUMP JUMPDEST PUSH2 0x10DD DUP3 PUSH2 0xA1F JUMP JUMPDEST PUSH8 0xFFFFFFFFFFFFFFFF DUP2 GT ISZERO PUSH2 0x10F6 JUMPI PUSH2 0x10F5 PUSH2 0xC03 JUMP JUMPDEST JUMPDEST PUSH2 0x1100 DUP3 SLOAD PUSH2 0xE80 JUMP JUMPDEST PUSH2 0x110B DUP3 DUP3 DUP6 PUSH2 0x1047 JUMP JUMPDEST PUSH1 0x0 PUSH1 0x20 SWAP1 POP PUSH1 0x1F DUP4 GT PUSH1 0x1 DUP2 EQ PUSH2 0x113E JUMPI PUSH1 0x0 DUP5 ISZERO PUSH2 0x112C JUMPI DUP3 DUP8 ADD MLOAD SWAP1 POP JUMPDEST PUSH2 0x1136 DUP6 DUP3 PUSH2 0x10B8 JUMP JUMPDEST DUP7 SSTORE POP PUSH2 0x119E JUMP JUMPDEST PUSH1 0x1F NOT DUP5 AND PUSH2 0x114C DUP7 PUSH2 0xF28 JUMP JUMPDEST PUSH1 0x0 JUMPDEST DUP3 DUP2 LT ISZERO PUSH2 0x1174 JUMPI DUP5 DUP10 ADD MLOAD DUP3 SSTORE PUSH1 0x1 DUP3 ADD SWAP2 POP PUSH1 0x20 DUP6 ADD SWAP5 POP PUSH1 0x20 DUP2 ADD SWAP1 POP PUSH2 0x114F JUMP JUMPDEST DUP7 DUP4 LT ISZERO PUSH2 0x1191 JUMPI DUP5 DUP10 ADD MLOAD PUSH2 0x118D PUSH1 0x1F DUP10 AND DUP3 PUSH2 0x109A JUMP JUMPDEST DUP4 SSTORE POP JUMPDEST PUSH1 0x1 PUSH1 0x2 DUP9 MUL ADD DUP9 SSTORE POP POP POP JUMPDEST POP POP POP POP POP POP JUMP JUMPDEST PUSH2 0x11AF DUP2 PUSH2 0x9FE JUMP JUMPDEST DUP3 MSTORE POP POP JUMP JUMPDEST PUSH2 0x11BE DUP2 PUSH2 0x9C5 JUMP JUMPDEST DUP3 MSTORE POP POP JUMP JUMPDEST PUSH1 0x0 PUSH1 0x40 DUP3 ADD SWAP1 POP PUSH2 0x11D9 PUSH1 0x0 DUP4 ADD DUP6 PUSH2 0x11A6 JUMP JUMPDEST PUSH2 0x11E6 PUSH1 0x20 DUP4 ADD DUP5 PUSH2 0x11B5 JUMP JUMPDEST SWAP4 SWAP3 POP POP POP JUMP JUMPDEST PUSH2 0x11F6 DUP2 PUSH2 0xAAF JUMP JUMPDEST DUP3 MSTORE POP POP JUMP JUMPDEST PUSH1 0x0 PUSH1 0x40 DUP3 ADD SWAP1 POP PUSH2 0x1211 PUSH1 0x0 DUP4 ADD DUP6 PUSH2 0x11B5 JUMP JUMPDEST PUSH2 0x121E PUSH1 0x20 DUP4 ADD DUP5 PUSH2 0x11ED JUMP JUMPDEST SWAP4 SWAP3 POP POP POP JUMP INVALID LOG2 PUSH5 0x6970667358 0x22 SLT KECCAK256 ADDRESS 0xC6 0x2E 0xC9 PUSH3 0xC8EA81 0xAA 0xD7 0xC9 LOG3 PUSH5 0x8AC2EF1DF2 0x2C PUSH28 0x34163C53472AF20C61E42E1B64736F6C634300081100330000000000 "},"methodIdentifiers":{"addTweet(string,bool)":"e580339f","deleteTweet(uint256,bool)":"f0312a37","getTweets()":"fc86741f","getUserTweets()":"731903ff"}}}}}