{
    "_format": "hh-sol-artifact-1",
    "contractName": "Twitter",
    "sourceName": "contracts/Twitter.sol",
    "abi": [
        {
            "anonymous": false,
            "inputs": [
                {
                    "indexed": false,
                    "internalType": "address",
                    "name": "recep",
                    "type": "address"
                },
                {
                    "indexed": false,
                    "internalType": "uint256",
                    "name": "tId",
                    "type": "uint256"
                }
            ],
            "name": "addedTweet",
            "type": "event"
        },
        {
            "anonymous": false,
            "inputs": [
                {
                    "indexed": false,
                    "internalType": "uint256",
                    "name": "tId",
                    "type": "uint256"
                },
                {
                    "indexed": false,
                    "internalType": "bool",
                    "name": "deleted",
                    "type": "bool"
                }
            ],
            "name": "delTweet",
            "type": "event"
        },
        {
            "inputs": [
                {
                    "internalType": "string",
                    "name": "text",
                    "type": "string"
                },
                {
                    "internalType": "string",
                    "name": "img",
                    "type": "string"
                },
                {
                    "internalType": "bool",
                    "name": "deleted",
                    "type": "bool"
                }
            ],
            "name": "addTweet",
            "outputs": [],
            "stateMutability": "nonpayable",
            "type": "function"
        },
        {
            "inputs": [
                {
                    "internalType": "uint256",
                    "name": "tId",
                    "type": "uint256"
                },
                {
                    "internalType": "bool",
                    "name": "deleted",
                    "type": "bool"
                }
            ],
            "name": "deleteTweet",
            "outputs": [],
            "stateMutability": "nonpayable",
            "type": "function"
        },
        {
            "inputs": [],
            "name": "getTweets",
            "outputs": [
                {
                    "components": [
                        {
                            "internalType": "uint256",
                            "name": "id",
                            "type": "uint256"
                        },
                        {
                            "internalType": "address",
                            "name": "uname",
                            "type": "address"
                        },
                        {
                            "internalType": "string",
                            "name": "text",
                            "type": "string"
                        },
                        {
                            "internalType": "string",
                            "name": "img",
                            "type": "string"
                        },
                        {
                            "internalType": "bool",
                            "name": "deleted",
                            "type": "bool"
                        }
                    ],
                    "internalType": "struct Twitter.Tweet[]",
                    "name": "",
                    "type": "tuple[]"
                }
            ],
            "stateMutability": "view",
            "type": "function"
        },
        {
            "inputs": [],
            "name": "getUserTweets",
            "outputs": [
                {
                    "components": [
                        {
                            "internalType": "uint256",
                            "name": "id",
                            "type": "uint256"
                        },
                        {
                            "internalType": "address",
                            "name": "uname",
                            "type": "address"
                        },
                        {
                            "internalType": "string",
                            "name": "text",
                            "type": "string"
                        },
                        {
                            "internalType": "string",
                            "name": "img",
                            "type": "string"
                        },
                        {
                            "internalType": "bool",
                            "name": "deleted",
                            "type": "bool"
                        }
                    ],
                    "internalType": "struct Twitter.Tweet[]",
                    "name": "",
                    "type": "tuple[]"
                }
            ],
            "stateMutability": "view",
            "type": "function"
        }
    ],
    "bytecode": "0x608060405234801561001057600080fd5b506113ec806100206000396000f3fe608060405234801561001057600080fd5b506004361061004c5760003560e01c8063731903ff14610051578063b5a989e81461006f578063f0312a371461008b578063fc86741f146100a7575b600080fd5b6100596100c5565b6040516100669190610d25565b60405180910390f35b61008960048036038101906100849190610ebc565b6104a3565b005b6100a560048036038101906100a09190610f73565b610646565b005b6100af610727565b6040516100bc9190610d25565b60405180910390f35b60606000808054905067ffffffffffffffff8111156100e7576100e6610d65565b5b60405190808252806020026020018201604052801561012057816020015b61010d610a9a565b8152602001906001900390816101055790505b5090506000805b6000805490508110156103e9573373ffffffffffffffffffffffffffffffffffffffff166001600083815260200190815260200160002060009054906101000a900473ffffffffffffffffffffffffffffffffffffffff1673ffffffffffffffffffffffffffffffffffffffff161480156101d8575060001515600082815481106101b5576101b4610fb3565b5b906000526020600020906005020160040160009054906101000a900460ff161515145b156103d657600081815481106101f1576101f0610fb3565b5b90600052602060002090600502016040518060a0016040529081600082015481526020016001820160009054906101000a900473ffffffffffffffffffffffffffffffffffffffff1673ffffffffffffffffffffffffffffffffffffffff1673ffffffffffffffffffffffffffffffffffffffff16815260200160028201805461027a90611011565b80601f01602080910402602001604051908101604052809291908181526020018280546102a690611011565b80156102f35780601f106102c8576101008083540402835291602001916102f3565b820191906000526020600020905b8154815290600101906020018083116102d657829003601f168201915b5050505050815260200160038201805461030c90611011565b80601f016020809104026020016040519081016040528092919081815260200182805461033890611011565b80156103855780601f1061035a57610100808354040283529160200191610385565b820191906000526020600020905b81548152906001019060200180831161036857829003601f168201915b505050505081526020016004820160009054906101000a900460ff1615151515815250508383815181106103bc576103bb610fb3565b5b602002602001018190525081806103d290611071565b9250505b80806103e190611071565b915050610127565b5060008167ffffffffffffffff81111561040657610405610d65565b5b60405190808252806020026020018201604052801561043f57816020015b61042c610a9a565b8152602001906001900390816104245790505b50905060005b82811015610499578381815181106104605761045f610fb3565b5b602002602001015182828151811061047b5761047a610fb3565b5b6020026020010181905250808061049190611071565b915050610445565b5080935050505090565b60008080549050905060006040518060a001604052808381526020013373ffffffffffffffffffffffffffffffffffffffff16815260200186815260200185815260200184151581525090806001815401808255809150506001900390600052602060002090600502016000909190919091506000820151816000015560208201518160010160006101000a81548173ffffffffffffffffffffffffffffffffffffffff021916908373ffffffffffffffffffffffffffffffffffffffff160217905550604082015181600201908161057c9190611265565b5060608201518160030190816105929190611265565b5060808201518160040160006101000a81548160ff0219169083151502179055505050336001600083815260200190815260200160002060006101000a81548173ffffffffffffffffffffffffffffffffffffffff021916908373ffffffffffffffffffffffffffffffffffffffff1602179055507f855707b2df044b4a4b6442428929c41e615eb8259d307cf789a1f61eddb47e063382604051610638929190611355565b60405180910390a150505050565b3373ffffffffffffffffffffffffffffffffffffffff166001600084815260200190815260200160002060009054906101000a900473ffffffffffffffffffffffffffffffffffffffff1673ffffffffffffffffffffffffffffffffffffffff16036107235780600083815481106106c1576106c0610fb3565b5b906000526020600020906005020160040160006101000a81548160ff0219169083151502179055507ffb379bdb102e50b1a6c8ae7c1873d71d2772b9643788fe71d758001d6f7774d5828260405161071a92919061138d565b60405180910390a15b5050565b60606000808054905067ffffffffffffffff81111561074957610748610d65565b5b60405190808252806020026020018201604052801561078257816020015b61076f610a9a565b8152602001906001900390816107675790505b5090506000805b6000805490508110156109e05760001515600082815481106107ae576107ad610fb3565b5b906000526020600020906005020160040160009054906101000a900460ff161515036109cd57600081815481106107e8576107e7610fb3565b5b90600052602060002090600502016040518060a0016040529081600082015481526020016001820160009054906101000a900473ffffffffffffffffffffffffffffffffffffffff1673ffffffffffffffffffffffffffffffffffffffff1673ffffffffffffffffffffffffffffffffffffffff16815260200160028201805461087190611011565b80601f016020809104026020016040519081016040528092919081815260200182805461089d90611011565b80156108ea5780601f106108bf576101008083540402835291602001916108ea565b820191906000526020600020905b8154815290600101906020018083116108cd57829003601f168201915b5050505050815260200160038201805461090390611011565b80601f016020809104026020016040519081016040528092919081815260200182805461092f90611011565b801561097c5780601f106109515761010080835404028352916020019161097c565b820191906000526020600020905b81548152906001019060200180831161095f57829003601f168201915b505050505081526020016004820160009054906101000a900460ff1615151515815250508383815181106109b3576109b2610fb3565b5b602002602001018190525081806109c990611071565b9250505b80806109d890611071565b915050610789565b5060008167ffffffffffffffff8111156109fd576109fc610d65565b5b604051908082528060200260200182016040528015610a3657816020015b610a23610a9a565b815260200190600190039081610a1b5790505b50905060005b82811015610a9057838181518110610a5757610a56610fb3565b5b6020026020010151828281518110610a7257610a71610fb3565b5b60200260200101819052508080610a8890611071565b915050610a3c565b5080935050505090565b6040518060a0016040528060008152602001600073ffffffffffffffffffffffffffffffffffffffff16815260200160608152602001606081526020016000151581525090565b600081519050919050565b600082825260208201905092915050565b6000819050602082019050919050565b6000819050919050565b610b2081610b0d565b82525050565b600073ffffffffffffffffffffffffffffffffffffffff82169050919050565b6000610b5182610b26565b9050919050565b610b6181610b46565b82525050565b600081519050919050565b600082825260208201905092915050565b60005b83811015610ba1578082015181840152602081019050610b86565b60008484015250505050565b6000601f19601f8301169050919050565b6000610bc982610b67565b610bd38185610b72565b9350610be3818560208601610b83565b610bec81610bad565b840191505092915050565b60008115159050919050565b610c0c81610bf7565b82525050565b600060a083016000830151610c2a6000860182610b17565b506020830151610c3d6020860182610b58565b5060408301518482036040860152610c558282610bbe565b91505060608301518482036060860152610c6f8282610bbe565b9150506080830151610c846080860182610c03565b508091505092915050565b6000610c9b8383610c12565b905092915050565b6000602082019050919050565b6000610cbb82610ae1565b610cc58185610aec565b935083602082028501610cd785610afd565b8060005b85811015610d135784840389528151610cf48582610c8f565b9450610cff83610ca3565b925060208a01995050600181019050610cdb565b50829750879550505050505092915050565b60006020820190508181036000830152610d3f8184610cb0565b905092915050565b6000604051905090565b600080fd5b600080fd5b600080fd5b600080fd5b7f4e487b7100000000000000000000000000000000000000000000000000000000600052604160045260246000fd5b610d9d82610bad565b810181811067ffffffffffffffff82111715610dbc57610dbb610d65565b5b80604052505050565b6000610dcf610d47565b9050610ddb8282610d94565b919050565b600067ffffffffffffffff821115610dfb57610dfa610d65565b5b610e0482610bad565b9050602081019050919050565b82818337600083830152505050565b6000610e33610e2e84610de0565b610dc5565b905082815260208101848484011115610e4f57610e4e610d60565b5b610e5a848285610e11565b509392505050565b600082601f830112610e7757610e76610d5b565b5b8135610e87848260208601610e20565b91505092915050565b610e9981610bf7565b8114610ea457600080fd5b50565b600081359050610eb681610e90565b92915050565b600080600060608486031215610ed557610ed4610d51565b5b600084013567ffffffffffffffff811115610ef357610ef2610d56565b5b610eff86828701610e62565b935050602084013567ffffffffffffffff811115610f2057610f1f610d56565b5b610f2c86828701610e62565b9250506040610f3d86828701610ea7565b9150509250925092565b610f5081610b0d565b8114610f5b57600080fd5b50565b600081359050610f6d81610f47565b92915050565b60008060408385031215610f8a57610f89610d51565b5b6000610f9885828601610f5e565b9250506020610fa985828601610ea7565b9150509250929050565b7f4e487b7100000000000000000000000000000000000000000000000000000000600052603260045260246000fd5b7f4e487b7100000000000000000000000000000000000000000000000000000000600052602260045260246000fd5b6000600282049050600182168061102957607f821691505b60208210810361103c5761103b610fe2565b5b50919050565b7f4e487b7100000000000000000000000000000000000000000000000000000000600052601160045260246000fd5b600061107c82610b0d565b91507fffffffffffffffffffffffffffffffffffffffffffffffffffffffffffffffff82036110ae576110ad611042565b5b600182019050919050565b60008190508160005260206000209050919050565b60006020601f8301049050919050565b600082821b905092915050565b60006008830261111b7fffffffffffffffffffffffffffffffffffffffffffffffffffffffffffffffff826110de565b61112586836110de565b95508019841693508086168417925050509392505050565b6000819050919050565b600061116261115d61115884610b0d565b61113d565b610b0d565b9050919050565b6000819050919050565b61117c83611147565b61119061118882611169565b8484546110eb565b825550505050565b600090565b6111a5611198565b6111b0818484611173565b505050565b5b818110156111d4576111c960008261119d565b6001810190506111b6565b5050565b601f821115611219576111ea816110b9565b6111f3846110ce565b81016020851015611202578190505b61121661120e856110ce565b8301826111b5565b50505b505050565b600082821c905092915050565b600061123c6000198460080261121e565b1980831691505092915050565b6000611255838361122b565b9150826002028217905092915050565b61126e82610b67565b67ffffffffffffffff81111561128757611286610d65565b5b6112918254611011565b61129c8282856111d8565b600060209050601f8311600181146112cf57600084156112bd578287015190505b6112c78582611249565b86555061132f565b601f1984166112dd866110b9565b60005b82811015611305578489015182556001820191506020850194506020810190506112e0565b86831015611322578489015161131e601f89168261122b565b8355505b6001600288020188555050505b505050505050565b61134081610b46565b82525050565b61134f81610b0d565b82525050565b600060408201905061136a6000830185611337565b6113776020830184611346565b9392505050565b61138781610bf7565b82525050565b60006040820190506113a26000830185611346565b6113af602083018461137e565b939250505056fea2646970667358221220d57ddea758b31680aa16fcab6287fb4d5ad2c13cd59bf677169ff6e3f8fbe57e64736f6c63430008110033",
    "linkReferences": {},
    "deployedLinkReferences": {}
}